{
  "_format": "hh-sol-artifact-1",
  "contractName": "WavePortal",
  "sourceName": "contracts/WavePortal.sol",
  "abi": [
    {
      "inputs": [],
      "stateMutability": "nonpayable",
      "type": "constructor"
    },
    {
      "inputs": [],
      "name": "getTotalWaves",
      "outputs": [
        {
          "internalType": "uint256",
          "name": "",
          "type": "uint256"
        }
      ],
      "stateMutability": "view",
      "type": "function"
    },
    {
      "inputs": [],
      "name": "getWaves",
      "outputs": [
        {
          "internalType": "address[]",
          "name": "",
          "type": "address[]"
        },
        {
          "internalType": "string[]",
          "name": "",
          "type": "string[]"
        }
      ],
      "stateMutability": "view",
      "type": "function"
    },
    {
      "inputs": [
        {
          "internalType": "string",
          "name": "_content",
          "type": "string"
        },
        {
          "internalType": "string",
          "name": "_author",
          "type": "string"
        }
      ],
      "name": "sendWave",
      "outputs": [],
      "stateMutability": "payable",
      "type": "function"
    },
    {
      "inputs": [
        {
          "internalType": "address",
          "name": "_account",
          "type": "address"
        }
      ],
      "name": "totalWafesOf",
      "outputs": [
        {
          "internalType": "uint256",
          "name": "",
          "type": "uint256"
        }
      ],
      "stateMutability": "view",
      "type": "function"
    },
    {
      "inputs": [
        {
          "internalType": "address",
          "name": "_account",
          "type": "address"
        }
      ],
      "name": "wafesOf",
      "outputs": [
        {
          "internalType": "string[]",
          "name": "",
          "type": "string[]"
        }
      ],
      "stateMutability": "view",
      "type": "function"
    }
  ],
  "bytecode": "0x60806040523480156200001157600080fd5b506200004160405180606001604052806022815260200162001550602291396200004f60201b62000a101760201c565b6000600181905550620001e3565b620000ef816040516024016200006691906200015c565b6040516020818303038152906040527f41304fac000000000000000000000000000000000000000000000000000000007bffffffffffffffffffffffffffffffffffffffffffffffffffffffff19166020820180517bffffffffffffffffffffffffffffffffffffffffffffffffffffffff8381831617835250505050620000f260201b60201c565b50565b60008151905060006a636f6e736f6c652e6c6f679050602083016000808483855afa5050505050565b6000620001288262000180565b6200013481856200018b565b9350620001468185602086016200019c565b6200015181620001d2565b840191505092915050565b600060208201905081810360008301526200017881846200011b565b905092915050565b600081519050919050565b600082825260208201905092915050565b60005b83811015620001bc5780820151818401526020810190506200019f565b83811115620001cc576000848401525b50505050565b6000601f19601f8301169050919050565b61135d80620001f36000396000f3fe60806040526004361061004a5760003560e01c8063415a37df1461004f578063883b08b41461006b5780639a2cdc08146100a8578063a9d42f7e146100d3578063e110567b146100ff575b600080fd5b61006960048036038101906100649190610d53565b61013c565b005b34801561007757600080fd5b50610092600480360381019061008d9190610d2a565b610296565b60405161009f9190611038565b60405180910390f35b3480156100b457600080fd5b506100bd61037a565b6040516100ca9190611038565b60405180910390f35b3480156100df57600080fd5b506100e86103c5565b6040516100f6929190610f5d565b60405180910390f35b34801561010b57600080fd5b5061012660048036038101906101219190610d2a565b6107e5565b6040516101339190610f94565b60405180910390f35b60006040518060a0016040528060015481526020014281526020018481526020018381526020013373ffffffffffffffffffffffffffffffffffffffff168152509080600181540180825580915050600190039060005260206000209060050201600090919091909150600082015181600001556020820151816001015560408201518160020190805190602001906101d6929190610c0a565b5060608201518160030190805190602001906101f3929190610c0a565b5060808201518160040160006101000a81548173ffffffffffffffffffffffffffffffffffffffff021916908373ffffffffffffffffffffffffffffffffffffffff160217905550505060016000815461024c90611229565b919050819055506102926040518060400160405280600d81526020017f257320686173207761766564210000000000000000000000000000000000000081525033610aa9565b5050565b6000806000905060005b6001548110156103705760008082815481106102e5577f4e487b7100000000000000000000000000000000000000000000000000000000600052603260045260246000fd5b906000526020600020906005020190508473ffffffffffffffffffffffffffffffffffffffff168160040160009054906101000a900473ffffffffffffffffffffffffffffffffffffffff1673ffffffffffffffffffffffffffffffffffffffff16141561035c57828061035890611229565b9350505b50808061036890611229565b9150506102a0565b5080915050919050565b60006103bd6040518060400160405280601781526020017f5765206861766520256420746f74616c20776176657321000000000000000000815250600154610b45565b600154905090565b606080600060015467ffffffffffffffff81111561040c577f4e487b7100000000000000000000000000000000000000000000000000000000600052604160045260246000fd5b60405190808252806020026020018201604052801561043a5781602001602082028036833780820191505090505b509050600060015467ffffffffffffffff811115610481577f4e487b7100000000000000000000000000000000000000000000000000000000600052604160045260246000fd5b6040519080825280602002602001820160405280156104b457816020015b606081526020019060019003908161049f5790505b509050600060015467ffffffffffffffff8111156104fb577f4e487b7100000000000000000000000000000000000000000000000000000000600052604160045260246000fd5b60405190808252806020026020018201604052801561052e57816020015b60608152602001906001900390816105195790505b50905060005b6001548110156107d7576000808281548110610579577f4e487b7100000000000000000000000000000000000000000000000000000000600052603260045260246000fd5b906000526020600020906005020190508060040160009054906101000a900473ffffffffffffffffffffffffffffffffffffffff168583815181106105e7577f4e487b7100000000000000000000000000000000000000000000000000000000600052603260045260246000fd5b602002602001019073ffffffffffffffffffffffffffffffffffffffff16908173ffffffffffffffffffffffffffffffffffffffff1681525050806002018054610630906111c6565b80601f016020809104026020016040519081016040528092919081815260200182805461065c906111c6565b80156106a95780601f1061067e576101008083540402835291602001916106a9565b820191906000526020600020905b81548152906001019060200180831161068c57829003601f168201915b50505050508483815181106106e7577f4e487b7100000000000000000000000000000000000000000000000000000000600052603260045260246000fd5b6020026020010181905250806003018054610701906111c6565b80601f016020809104026020016040519081016040528092919081815260200182805461072d906111c6565b801561077a5780601f1061074f5761010080835404028352916020019161077a565b820191906000526020600020905b81548152906001019060200180831161075d57829003601f168201915b50505050508383815181106107b8577f4e487b7100000000000000000000000000000000000000000000000000000000600052603260045260246000fd5b60200260200101819052505080806107cf90611229565b915050610534565b508282945094505050509091565b60606000600a67ffffffffffffffff81111561082a577f4e487b7100000000000000000000000000000000000000000000000000000000600052604160045260246000fd5b60405190808252806020026020018201604052801561085d57816020015b60608152602001906001900390816108485790505b5090506000805b600154811015610a055760008082815481106108a9577f4e487b7100000000000000000000000000000000000000000000000000000000600052603260045260246000fd5b906000526020600020906005020190508573ffffffffffffffffffffffffffffffffffffffff168160040160009054906101000a900473ffffffffffffffffffffffffffffffffffffffff1673ffffffffffffffffffffffffffffffffffffffff1614156109f157806002018054610920906111c6565b80601f016020809104026020016040519081016040528092919081815260200182805461094c906111c6565b80156109995780601f1061096e57610100808354040283529160200191610999565b820191906000526020600020905b81548152906001019060200180831161097c57829003601f168201915b50505050508484815181106109d7577f4e487b7100000000000000000000000000000000000000000000000000000000600052603260045260246000fd5b602002602001018190525082806109ed90611229565b9350505b5080806109fd90611229565b915050610864565b508192505050919050565b610aa681604051602401610a249190610fb6565b6040516020818303038152906040527f41304fac000000000000000000000000000000000000000000000000000000007bffffffffffffffffffffffffffffffffffffffffffffffffffffffff19166020820180517bffffffffffffffffffffffffffffffffffffffffffffffffffffffff8381831617835250505050610be1565b50565b610b418282604051602401610abf929190610fd8565b6040516020818303038152906040527f319af333000000000000000000000000000000000000000000000000000000007bffffffffffffffffffffffffffffffffffffffffffffffffffffffff19166020820180517bffffffffffffffffffffffffffffffffffffffffffffffffffffffff8381831617835250505050610be1565b5050565b610bdd8282604051602401610b5b929190611008565b6040516020818303038152906040527f9710a9d0000000000000000000000000000000000000000000000000000000007bffffffffffffffffffffffffffffffffffffffffffffffffffffffff19166020820180517bffffffffffffffffffffffffffffffffffffffffffffffffffffffff8381831617835250505050610be1565b5050565b60008151905060006a636f6e736f6c652e6c6f679050602083016000808483855afa5050505050565b828054610c16906111c6565b90600052602060002090601f016020900481019282610c385760008555610c7f565b82601f10610c5157805160ff1916838001178555610c7f565b82800160010185558215610c7f579182015b82811115610c7e578251825591602001919060010190610c63565b5b509050610c8c9190610c90565b5090565b5b80821115610ca9576000816000905550600101610c91565b5090565b6000610cc0610cbb84611078565b611053565b905082815260208101848484011115610cd857600080fd5b610ce3848285611184565b509392505050565b600081359050610cfa81611310565b92915050565b600082601f830112610d1157600080fd5b8135610d21848260208601610cad565b91505092915050565b600060208284031215610d3c57600080fd5b6000610d4a84828501610ceb565b91505092915050565b60008060408385031215610d6657600080fd5b600083013567ffffffffffffffff811115610d8057600080fd5b610d8c85828601610d00565b925050602083013567ffffffffffffffff811115610da957600080fd5b610db585828601610d00565b9150509250929050565b6000610dcb8383610deb565b60208301905092915050565b6000610de38383610edc565b905092915050565b610df481611148565b82525050565b610e0381611148565b82525050565b6000610e14826110c9565b610e1e8185611104565b9350610e29836110a9565b8060005b83811015610e5a578151610e418882610dbf565b9750610e4c836110ea565b925050600181019050610e2d565b5085935050505092915050565b6000610e72826110d4565b610e7c8185611115565b935083602082028501610e8e856110b9565b8060005b85811015610eca5784840389528151610eab8582610dd7565b9450610eb6836110f7565b925060208a01995050600181019050610e92565b50829750879550505050505092915050565b6000610ee7826110df565b610ef18185611126565b9350610f01818560208601611193565b610f0a816112ff565b840191505092915050565b6000610f20826110df565b610f2a8185611137565b9350610f3a818560208601611193565b610f43816112ff565b840191505092915050565b610f578161117a565b82525050565b60006040820190508181036000830152610f778185610e09565b90508181036020830152610f8b8184610e67565b90509392505050565b60006020820190508181036000830152610fae8184610e67565b905092915050565b60006020820190508181036000830152610fd08184610f15565b905092915050565b60006040820190508181036000830152610ff28185610f15565b90506110016020830184610dfa565b9392505050565b600060408201905081810360008301526110228185610f15565b90506110316020830184610f4e565b9392505050565b600060208201905061104d6000830184610f4e565b92915050565b600061105d61106e565b905061106982826111f8565b919050565b6000604051905090565b600067ffffffffffffffff821115611093576110926112d0565b5b61109c826112ff565b9050602081019050919050565b6000819050602082019050919050565b6000819050602082019050919050565b600081519050919050565b600081519050919050565b600081519050919050565b6000602082019050919050565b6000602082019050919050565b600082825260208201905092915050565b600082825260208201905092915050565b600082825260208201905092915050565b600082825260208201905092915050565b60006111538261115a565b9050919050565b600073ffffffffffffffffffffffffffffffffffffffff82169050919050565b6000819050919050565b82818337600083830152505050565b60005b838110156111b1578082015181840152602081019050611196565b838111156111c0576000848401525b50505050565b600060028204905060018216806111de57607f821691505b602082108114156111f2576111f16112a1565b5b50919050565b611201826112ff565b810181811067ffffffffffffffff821117156112205761121f6112d0565b5b80604052505050565b60006112348261117a565b91507fffffffffffffffffffffffffffffffffffffffffffffffffffffffffffffffff82141561126757611266611272565b5b600182019050919050565b7f4e487b7100000000000000000000000000000000000000000000000000000000600052601160045260246000fd5b7f4e487b7100000000000000000000000000000000000000000000000000000000600052602260045260246000fd5b7f4e487b7100000000000000000000000000000000000000000000000000000000600052604160045260246000fd5b6000601f19601f8301169050919050565b61131981611148565b811461132457600080fd5b5056fea2646970667358221220351434d1929af973855f43c0046ec16af57fb4c931d4e31f12da307ae465ae2f64736f6c63430008040033496e69697469616c6973736174696f6e20636f6e7374727563746f72202d2d2d2d2d",
  "linkReferences": {},
  "deployedLinkReferences": {}
}