{
  "_format": "hh-sol-artifact-1",
  "contractName": "WavePortal",
  "sourceName": "contracts/WavePortal.sol",
  "abi": [
    {
      "inputs": [],
      "stateMutability": "nonpayable",
      "type": "constructor"
    },
    {
      "inputs": [],
      "name": "getTotalWaves",
      "outputs": [
        {
          "internalType": "uint256",
          "name": "",
          "type": "uint256"
        }
      ],
      "stateMutability": "view",
      "type": "function"
    },
    {
      "inputs": [],
      "name": "wave",
      "outputs": [],
      "stateMutability": "nonpayable",
      "type": "function"
    }
  ],
  "bytecode": "0x608060405234801561001057600080fd5b5061003c60405180606001604052806022815260200161070f6022913961004160201b6101041760201c565b6101c4565b6100dd816040516024016100559190610142565b6040516020818303038152906040527f41304fac000000000000000000000000000000000000000000000000000000007bffffffffffffffffffffffffffffffffffffffffffffffffffffffff19166020820180517bffffffffffffffffffffffffffffffffffffffffffffffffffffffff83818316178352505050506100e060201b60201c565b50565b60008151905060006a636f6e736f6c652e6c6f679050602083016000808483855afa5050505050565b600061011482610164565b61011e818561016f565b935061012e818560208601610180565b610137816101b3565b840191505092915050565b6000602082019050818103600083015261015c8184610109565b905092915050565b600081519050919050565b600082825260208201905092915050565b60005b8381101561019e578082015181840152602081019050610183565b838111156101ad576000848401525b50505050565b6000601f19601f8301169050919050565b61053c806101d36000396000f3fe608060405234801561001057600080fd5b50600436106100365760003560e01c80636fe15b441461003b5780639a2cdc0814610045575b600080fd5b610043610063565b005b61004d6100b9565b60405161005a91906103d7565b60405180910390f35b60008081546100719061047d565b919050819055506100b76040518060400160405280600d81526020017f25732068617320776176656421000000000000000000000000000000000000008152503361019d565b565b60006100fc6040518060400160405280601781526020017f5765206861766520256420746f74616c20776176657321000000000000000000815250600054610239565b600054905090565b61019a816040516024016101189190610355565b6040516020818303038152906040527f41304fac000000000000000000000000000000000000000000000000000000007bffffffffffffffffffffffffffffffffffffffffffffffffffffffff19166020820180517bffffffffffffffffffffffffffffffffffffffffffffffffffffffff83818316178352505050506102d5565b50565b61023582826040516024016101b3929190610377565b6040516020818303038152906040527f319af333000000000000000000000000000000000000000000000000000000007bffffffffffffffffffffffffffffffffffffffffffffffffffffffff19166020820180517bffffffffffffffffffffffffffffffffffffffffffffffffffffffff83818316178352505050506102d5565b5050565b6102d1828260405160240161024f9291906103a7565b6040516020818303038152906040527f9710a9d0000000000000000000000000000000000000000000000000000000007bffffffffffffffffffffffffffffffffffffffffffffffffffffffff19166020820180517bffffffffffffffffffffffffffffffffffffffffffffffffffffffff83818316178352505050506102d5565b5050565b60008151905060006a636f6e736f6c652e6c6f679050602083016000808483855afa5050505050565b6103078161040e565b82525050565b6000610318826103f2565b61032281856103fd565b935061033281856020860161044a565b61033b816104f5565b840191505092915050565b61034f81610440565b82525050565b6000602082019050818103600083015261036f818461030d565b905092915050565b60006040820190508181036000830152610391818561030d565b90506103a060208301846102fe565b9392505050565b600060408201905081810360008301526103c1818561030d565b90506103d06020830184610346565b9392505050565b60006020820190506103ec6000830184610346565b92915050565b600081519050919050565b600082825260208201905092915050565b600061041982610420565b9050919050565b600073ffffffffffffffffffffffffffffffffffffffff82169050919050565b6000819050919050565b60005b8381101561046857808201518184015260208101905061044d565b83811115610477576000848401525b50505050565b600061048882610440565b91507fffffffffffffffffffffffffffffffffffffffffffffffffffffffffffffffff8214156104bb576104ba6104c6565b5b600182019050919050565b7f4e487b7100000000000000000000000000000000000000000000000000000000600052601160045260246000fd5b6000601f19601f830116905091905056fea2646970667358221220d65d25b7048fec11cc6cc3776cab3794cb69b05a8ffd84606d1a8671de16851664736f6c63430008040033496e69697469616c6973736174696f6e20636f6e7374727563746f72202d2d2d2d2d",
  "linkReferences": {},
  "deployedLinkReferences": {}
}